:020000040000fa
:080000000002040000000000f2
:020000040000fa
:100400002fc6210000ff2700000188000000000027
:100410000c000700a0692100010020000f00070068
:10042000000020000000e000020032000000020096
:1004300000000000840d0200000000000040da000f
:100440000000fe00000020000000e000020032007a
:10045000000020009001880000000600a102880032
:10046000800078000000eb001a003700e2804000b6
:1004700054a0b4009101ba00e280400054a0b4003e
:100480009102ba00e280400054a0b4000002eb00e8
:10049000472bde00f507b200a6018800602ce100c2
:1004a00008003a000049eb000201e80002003900b0
:1004b0003420ec0002f0a0008301e900f9ff3e00c7
:1004c000040037006128e100010032000082eb00e7
:1004d000040007001101ba000200e000e3ff3a0047
:1004e0000000060004d0a300e20f49001c00390000
:1004f000810278003549ba000201e80002003900a3
:100500003420ec0002f0a0008301e9000f0032006b
:100510002549ba000201e800020039003420ec004d
:1005200002f0a0008301e900080032000400e000ae
:100530000600320015c9ba000201e80002003900c5
:100540003420ec0002f0a0008301e9008180e80083
:1005500054a0b4000300e000e2ff3a0000000600ef
:100560009102ba00055978008301e900f7ff3200d3
:10057000c82ade00055978008301e900f3ff320044
:100580000400e000f1ff320011d9ba00eeff37009d
:1005900003f0a200889fbe008a9fbe008c1f7800d7
:1005a000260107002d0133006450e1004f003200a6
:1005b0006420e1005200320003826c0007003b001f
:1005c0000905d0000306d000820f54000c065d0020
:1005d0000200390002003200890178000306780029
:1005e0008582550004003d000003fd008103fd00ed
:1005f0008502ea008b854200840f720002003b00f6
:1006000060001000e08018006011b8000005eb00e9
:100610007a28e1000a00390006007800c75ddd0095
:10062000f707b200878075002d00370082817100c6
:100630000a017800610560008180d1000080d3004c
:100640008502e900f9ff3b0006044000878448006a
:1006500002003b0060041400e0841c000988a30031
:10066000070032008a81710082817100610164009b
:100670008904d1000884d3008b05e80017003700f7
:100680000978a30013003a000b00e00013003400c7
:100690008b05e9000804440089844c000a44740076
:1006a0000978a3000d003a000b00e00007003400b9
:1006b0008b05e9000804440089844c0001003a00dd
:1006c0000b0020000978a300f7ff32000001eb00c7
:1006d00002003700828171000a0178009c00070047
:1006e0000cf0a70001f0a000e50037006420e10055
:1006f00002003a00838f6c00e50033000801be0061
:100700000200be00de003700889fbe008a9fbe0048
:100710008c1f7800c9000700d000330003866c00ee
:100720006450e1002e0032006420e100330032000a
:100730006150e1002f0032006120e1003100320001
:1007400085855500eb07b000090020000804200053
:10075000050037000804440089844c000a00310079
:100760000603430087834b000001530081815b0037
:10077000f8ff33000203be000800a0000804440094
:1007800089844c00f6ff3900c639dd00830173000f
:1007900001003200130020008904d1000884d30036
:1007a0000998a300050032000800a7000300a0007c
:1007b0008904d1000884d3008b05e8008904d100a6
:1007c0000884d3000001eb000281d2006000070022
:1007d00001f0a1000cf0a70001f0a000a800370074
:1007e0006420e100aa0032000801be000200be0041
:1007f000f7ff37006120e100a50032006000b8007b
:10080000f3ff37000000200001f82700f0ff370059
:10081000f4ff2f00c80037000001be00720007007f
:100820000470a70003f0a10003f8a30013003a002e
:100830006509b10010003200090035006928e100a7
:100840000200350001002800000005000000400003
:10085000818048008502e900fcff3a0000000600a4
:10086000f88f4200050035008100d1000080d300e0
:100870008502e800fcff3a00000006008000eb0063
:1008800000000500889fbe008a9fbe000105780019
:100890000100e0000400350008003c000000e0001a
:1008a000200032000500370060001000e0801800d2
:1008b00002003b0001f02c001a0037000004be00cb
:1008c0006011b8006b0920000982cf0002003900d6
:1008d0000882cf000441b000694252000e0032008d
:1008e00008003b0082817100610164008904d1002d
:1008f0000884d3008b05e8000442e800f9ff3a00c1
:10090000050037000804440089844c008b05e90089
:100910000442e900fbff3a000d0007000af0a700bf
:1009200001f0a0004f05be004f04be00000006000d
:100930000001eb0059000700040032000200200013
:1009400003f8230001f0a70011ff070000000600d4
:1009500081002000618055000b003d000b0020004d
:1009600061fe2f000100e1001d0034008281710052
:10097000610164008904d1000884d3000000e8000c
:10098000faff3a007100200061006400030070006b
:10099000020060000900320061044400e0844c0061
:1009a0000988a500050032008b05e8006808e10011
:1009b00002003a008904d1000884d300f20f20001d
:1009c0000258e10005003d00c75ddd00f907b200f7
:1009d0008980750008007800000006000bf82700e9
:1009e0008b00780000000500c70ade00f107b200a6
:1009f000f50fb20008003200e1cf420002003200e1
:100a00000170a00024000500810f70000100320079
:100a10000408050044000500810f700002003a0040
:100a2000140005008502e9000000400081c0480074
:100a3000fcff3b000170a000240005000004be0084
:100a4000e9ff07000003be000405be000200be006f
:100a5000e5ff0700844f7500000006000200be009d
:100a60006450e100050036006420e1000200360019
:100a70000968a30001003a000800be000160a00060
:100a80004f0678004f05be004f04be000000060070
:100a9000f0ff2f00f1ff2700f9ff3700889fbe000d
:100aa0008a9fbe000003be00cfff070085057800c7
:100ab00082815200020020006220e10004003a001e
:100ac000f307b100040035007718e1000400350099
:100ad0000600be00140037006000b8000f003700a9
:100ae000f50f2000faff2f008502d1000a85d30000
:100af0008301e900fcff3b00818462000004650083
:100b0000890f7400f2ff32008582ea000a85ea004c
:100b100081846200000465008dff070007f0a700d4
:100b200001f0a0000081eb000200e0004f05be00d4
:100b30004f04be0000000600889fbe008a9fbe00d2
:100b4000841f7800bdff07004f00780011003300bc
:100b5000f0ff2f00838f6c0006003b00040565004a
:100b60000a00a7000800370009f0a60010002000c6
:100b700008003700820f5400838f5c0003003900a7
:100b80001000200001003e000000200009f0a70036
:100b90000000ea004f05be004f04be000000e00068
:100ba0000000060000027800810178000100780052
:100bb000110009000280d8008400e8000000e00075
:100bc0000200320001027800f9ff37008048eb0094
:100bd000110009008281d8008000fd0081017800a9
:100be000e94f5000010034006740400005c3b300e6
:100bf000055240000100e000f5ff3a0004007800d3
:100c000000000600881f7800000478000100e00062
:100c10000200350080017800040037008001780070
:100c2000d0c2b300805978008100ea000300780048
:100c3000dcff0700080078004f0478000000060081
:100c4000800078003004e000feff3a000100500010
:080c50000000e90000000600ad
:020000040000fa
:10000800101700001017000010170000101700004c
:10001800101700001017000010170000101700003c
:10002800101700001017000010170000760c0000d1
:100038001017000010170000101700001c0d00001a
:10004800000d000010170000101700001017000026
:1000580010170000101700001017000010170000fc
:1000680010170000101700001017000010170000ec
:1000780010170000101700001017000010170000dc
:10008800101700001017000010170000580d00008e
:100098006a0d00001017000010170000101700006c
:1000a80010170000101700001017000010170000ac
:1000b800101700001017000010170000101700009c
:1000c800101700001017000010170000101700008c
:1000d800101700001017000010170000101700007c
:1000e800101700001017000010170000101700006c
:1000f800101700001017000010170000101700005c
:10010800101700001017000010170000101700004b
:10011800101700001017000010170000101700003b
:10012800101700001017000010170000101700002b
:10013800101700001017000010170000101700001b
:10014800101700001017000010170000101700000b
:1001580010170000101700001017000010170000fb
:1001680010170000101700001017000010170000eb
:1001780010170000101700001017000010170000db
:1001880010170000101700001017000010170000cb
:1001980010170000101700001017000010170000bb
:1001a80010170000101700001017000010170000ab
:1001b800101700001017000010170000101700009b
:1001c800101700001017000010170000101700008b
:1001d800101700001017000010170000101700007b
:1001e800101700001017000010170000101700006b
:0801f8001017000010170000b1
:020000040000fa
:10020800101700001017000010170000101700004a
:10021800101700001017000010170000101700003a
:10022800101700001017000010170000760c0000cf
:100238001017000010170000101700001c0d000018
:10024800000d000010170000101700001017000024
:1002580010170000101700001017000010170000fa
:1002680010170000101700001017000010170000ea
:1002780010170000101700001017000010170000da
:10028800101700001017000010170000580d00008c
:100298006a0d00001017000010170000101700006a
:1002a80010170000101700001017000010170000aa
:1002b800101700001017000010170000101700009a
:1002c800101700001017000010170000101700008a
:1002d800101700001017000010170000101700007a
:1002e800101700001017000010170000101700006a
:1002f800101700001017000010170000101700005a
:100308001017000010170000101700001017000049
:100318001017000010170000101700001017000039
:100328001017000010170000101700001017000029
:100338001017000010170000101700001017000019
:100348001017000010170000101700001017000009
:1003580010170000101700001017000010170000f9
:1003680010170000101700001017000010170000e9
:1003780010170000101700001017000010170000d9
:1003880010170000101700001017000010170000c9
:1003980010170000101700001017000010170000b9
:1003a80010170000101700001017000010170000a9
:1003b8001017000010170000101700001017000099
:1003c8001017000010170000101700001017000089
:1003d8001017000010170000101700001017000079
:1003e8001017000010170000101700001017000069
:0803f8001017000010170000af
:020000040000fa
:020000040005f5
:0457f000ffff0000b7
:020000040000fa
:020000040005f5
:0457f400fffc0000b6
:020000040000fa
:020000040005f5
:0457f800de1b0000b4
:020000040000fa
:020000040005f5
:0457fc007f3d0000ed
:020000040000fa
:100c58003c00fa00200f9800310f9800420f9800ce
:100c6800530f9800640f9800760f980007179800a4
:100c78006e089000100798007e0890008e10900073
:100c8800e00f5000e08f5800060035007e08900005
:100c98008e109000f9fe0700401f9800511f980021
:100ca800170037007e0890008e10900061016000e8
:100cb8006000b8000300200002007000838070000c
:100cc8007e0990008e1190008301d1000281d3002b
:100cd8000200700083807000e8fe0700401f980043
:100ce800511f98004e199000de1990004e18900080
:100cf800de18900025fe0700401f9800511f98003d
:100d080002002000034824004e189000de189000ce
:100d18007bfe0700e1000700010020004007980063
:100d2800510798006000b800200798003107980024
:100d38004e009000de009000e00f5000e08f580059
:100d480012003a001000200001002000400798001f
:100d5800510798001eba9700aeba97003ebb97009d
:100d6800cebb9700849fbe00869fbe001e029000e7
:100d78002e089000be0890004e099000de099000f1
:100d8800eb000700e8875700600f98002e099000d5
:100d9800be0990001eb89700aeb897008042eb00dd
:100da80075779800800f5100818f590002003e002e
:100db80016c0b300767798004e099000de099000bf
:100dc8003eb89700ceb897008043eb00677798004d
:100dd800800f5100818f59000200310010c0b3000c
:100de80060779800fe7090006e71900002c06000fd
:100df8000004e000360032001eba9700aeba970031
:100e08003ebb9700cebb9700849fbe00869fbe0066
:100e18001e0290002e089000be0890004e09900017
:100e2800de099000c2000700e88757001007980005
:100e3800200220000e0040002e0a9000be0a9000fa
:100e48004e0b9000de0b9000849fbe00869fbe0074
:100e58001eba9700aeba97003ebb9700cebb97006c
:100e680084010700e88757001e109000ae1090001c
:100e78003e119000ce11900060079800710798000d
:100e8800020f9800130f98002e029000be029000e7
:100e98004e039000de0390006e009000fe0090006c
:100ea8000e0990009e099000c0010700000f78000d
:100eb8006e0890001e004000600f9800900020000f
:100ec80023070700a00020002d0707007000370047
:100ed8002e099000be0990001eb89700aeb8970082
:100ee8008042eb0055779800800f5100818f5900a0
:100ef8000200390016c0b300567798004e099000da
:100f0800de0990003eb89700ceb897008043eb000a
:100f180047779800800f5100818f590002003600f2
:100f280010c0b30040779800de7090004e719000ba
:100f380002c060000004e000360032001eba9700cc
:100f4800aeba97003ebb9700cebb9700849fbe0009
:100f5800869fbe001e0290002e089000be089000da
:100f68004e099000de09900071000700e8875700dd
:100f780010079800a00220000e0040001eba97003b
:100f8800aeba97003ebb9700cebb9700849fbe00c9
:100f9800869fbe002e0a9000be0a90004e0b90005d
:100fa800de0b900033010700e88757005e109000c1
:100fb800ee1090007e1190008e1990006007980046
:100fc80071079800020f9800130f98002e029000e6
:100fd800be0290004e039000de0390006e00900069
:100fe800fe0090000e0990009e0990006f01070016
:100ff800000f78006e0890001e005000600f9800e7
:1010080090002000de060700a0002000d0060700a0
:101018001f0037002e099000be0990001eb89700e7
:10102800aeb897008042eb0035779800800f5100ea
:10103800818f590002003a0016c0b3003677980035
:101048004e099000de0990003eb89700ceb8970090
:101058008043eb0027779800800f5100818f59005b
:1010680002003a0010c0b30020779800be709000cc
:101078002e71900002c060000004e00004003200fd
:1010880090002000be060700a0002000bc06070054
:101098006e0890000080fa00000006000a00fa00be
:1010a80010079800210798001e009000ae009000dd
:1010b8001dfe0700d6fd0700000f78001e0078000f
:1010c800cf80de00edfd070030079800410798004b
:1010d8001e00e00007003d00020020000378240005
:1010e8003e009000ce00900028fd070030079800d1
:1010f800410798003e019000ce0190001e0090002c
:10110800ae00900020fd07000200200003f023003d
:10111800bdfd07000000e00001003d0001003700b0
:101128001e0fe8001e0078000080fa00000006008c
:101138001200fa00009fbe000297be004407980004
:101148006a004700ce0090001eba9700aeba97001a
:101158003ebb9700cebb97006a0007005e00900078
:10116800ee0090007e0190008e09900010bf9f0055
:1011780021bf9f0032bf9f0043bf9f003e02be00b9
:101188002e03be001eb89700aeb897003eb9970070
:10119800ceb9970005010700400798004e0090005f
:1011a8000080fa00000006001000fa00700798009e
:1011b80024079800350798004607980057079800b5
:1011c8006000b800008fbe004e009000de00900066
:1011d800008fbe004e009000de0090000041eb0042
:1011e800524f9800e00f5000e08f580002003a007c
:1011f80013c0b300534f98003eb89700ceb897007d
:101208000042eb00444f9800e00f5000e08f580078
:1012180002003a0010c0b300404f9800de4890002a
:101228004e49900002c060000004e0000400320053
:101238006000b80040079800510798001f00370069
:101248004e019000de0190003eb89700ceb897009e
:10125800020040008380480040079800510798002a
:101268004e009000de009000e00f5000e08f580024
:1012780007003a002e009000be0090006100400078
:10128800e080480020079800310798000b003700dd
:101298004e009000de009000be0f5000ae8f580048
:1012a800060031002e009000be0090006100400052
:1012b800e080480020079800310798002e00900031
:1012c800be0090001eb99700aeb99700000041001b
:1012d8008180490020079800310798002e0090006f
:1012e800be0090004e019000de0190007e0290004a
:1012f800009abe000292be007e0090000080fa00b4
:10130800000006001a00fa00889fbe008a9fbe00ef
:10131800400f980074079800050f9800160f980062
:10132800270f9800310f98006000b8005007980008
:10133800610798006000b8003007980041079800de
:101348006000b800008fbe000000eb002007980086
:10135800250037005e009000ee009000008fbe0070
:101368005e019000ee0190001e089000ae0890000b
:1013780002004000838048005007980061079800e9
:101388005e009000ee009000e00f5000e08f5800e3
:1013980007003a003e009000ce0090006100400037
:1013a800e080480030079800410798000b0037009c
:1013b8005e009000ee009000be0f5000ae8f580007
:1013c800060031003e009000ce0090006100400011
:1013d800e080480030079800410798002e009000f0
:1013e8000000e80020079800ae0090003e0890003a
:1013f800808f5000d7ff39003e059000ce05900041
:101408007e0490008e0c90003e0890006103b800a6
:101418008800780006007800000ab80007c0b90004
:10142800050178000001410009b0b9000001410040
:10143800820278000a0042008b804a003007980038
:10144800410798003e009000ce0090005e01900099
:10145800ee0190004e0a9000009abe000292be0073
:101468004e0890004f05be004f04be000080fa00f1
:10147800000006000e00fa0060079800049fbe00f6
:101488000697be001e01be001eb89700aeb89700b2
:101498000002eb0054079800800f5100818f59001b
:1014a8000200360010002000500798001e01be0000
:1014b8001eb89700aeb897000042eb00144f980092
:1014c800800f5100818f59000200390010c0b3000d
:1014d800104f98002e019000be0190003eb8970072
:1014e800ceb897000042eb00044f9800800f5100df
:1014f800818f59000200390010c0b300004f9800d6
:101508009e4890000e49900002c060000080fb00d9
:10151800de019000008071000000e0001b00320036
:101528003eb99700ceb997002e009000be009000fb
:10153800800f5100818f5900060036001eb89700b1
:10154800aeb8970061004000e080480010bf9f00df
:1015580021bf9f002e019000be0190003eb8970069
:10156800ceb89700000051008180590020079800ec
:10157800310798001e01be001eb89700aeb897004c
:101588000000510081805900008fbe003e00be005f
:101598002e01be006e029000009abe000292be00ac
:1015a8006e0090000080fa00000006002e00fa008d
:1015b800500798006107980072079800030f980079
:1015c800140f9800250f9800360f9800470f9800c1
:1015d8000000eb00000f78001e089000ae08900095
:1015e8003e099000ce099000100798002107980046
:1015f80032079800430798001e089000ae08900034
:101608000041eb00526f9800e00f5000e08f580047
:1016180002003a0013c0b300536f98003e089000d0
:10162800ce0890000042eb00446f9800e00f500095
:10163800e08f580002003a0015c0b300456f9800cb
:101648005e6b9000ce6b9000074063000004e000e2
:10165800030032000080eb00501798009e0037000e
:101668005e019000ee0190001e089000ae08900008
:101678000042eb00146f9800800f5100818f5900d1
:1016880002003a0015c0b300156f98007e01900063
:101698008e0990003e089000ce0890000043eb00b1
:1016a800066f9800800f5100818f590002003a00a0
:1016b80017c0b300076f98009e6890000e699000ed
:1016c80002c060000004e000270032001000200083
:1016d800000f78009e017800531798007e003700ad
:1016e8003e099000ce0990007e0090008e08900080
:1016f800800f5100818f5900060036001e089000a7
:10170800ae08900061004000e0804800100f98008b
:10171800210f98007e0190008e0990003e089000ed
:10172800ce08900000005100818059007007980091
:10173800010f98005e019000ee0190001e089000d5
:10174800ae089000000051008180590050079800b1
:10175800610798001e009000ae009000100f9800de
:10176800210f98001e0fe8005e019000ee01900026
:101778001e089000ae0890000002eb003417980095
:10178800800f5100818f590002003600150020009b
:10179800351798005e019000ee0190001e08900039
:1017a800ae0890000043eb0056679800800f510088
:1017b800818f59000200390017c0b300576798009d
:1017c8007e0190008e0990003e089000ce0890009f
:1017d8000042eb0044679800800f5100818f590048
:1017e8000200390015c0b300456798005e63900099
:1017f800ce639000074063000080fb00be1090009d
:10180800008070000000e000b5ff3a007a00470051
:101818005e029000ee0290007e0390008e0b900016
:10182800849fbe00869fbe001e029000ae029000fc
:101838003e039000ce0390000eff0700e887570094
:101848005e089000ee0890007e0990008e119000ce
:10185800100798002107980032079800430798005e
:101868005e019000ee0190001e009000ae00900016
:101878008042eb0035679800800f5100818f590036
:101888000200390016c0b300366798007e01900048
:101898008e0990003e009000ce0090008043eb003f
:1018a80027679800800f5100818f59000200390086
:1018b80010c0b30020679800be6090002e619000b1
:1018c80002c060000004e000010032001e0fe800c2
:1018d8009e017800531798005e1090000080fa006f
:1018e800000006003600f800809fbe00829fbe0000
:1018f800849fbe00869fbe003200f80000002000d2
:10190800900188000000fa008460a90010002000ff
:1019180030de88000000eb000008880070de8000e0
:101928000000e000080032000000eb0070de8800d4
:101938000000eb0030de8800730307000000eb00b6
:1019480060de88002400370060de80000000e800c8
:1019580060de880061de8000900f2000808f5000dc
:101968000b003c00a00880000100200080de8800f9
:1019780091de8800c008800001002000a0de8800f9
:10198800b1de8800c0de8000d0de8800120037009b
:10199800a00880000100200080de880091de880019
:1019a800c008800001002000a0de8800b1de8800a9
:1019b800c0de8000d0de88000000eb00a0088800b0
:1019c8000000eb00c00888000000eb00c0de8800c3
:1019d8000000eb0060de88000080fa003200f900a9
:1019e8004f03be004f02be004f01be004f00be00b5
:1019f8003600f90000400600801f78003200f80029
:101a080000002000900188000000fa008500a9006d
:101a18000000eb000008880010002000004088004b
:101a28000080fa003200f9004f00780000400600fc
:101a3800809fbe003200f80000002000900188005e
:101a48000000fa00a00880000100200080de880065
:101a580091de8800c008800001002000a0de880018
:101a6800b1de8800c0de8000d0de88000000eb0018
:101a7800c0de88000000eb00a00888000000eb0032
:101a8800c00888000000eb003008880084e0a90046
:101a98001000200040de88000080fa003200f900c3
:101aa8004f00be00004006003200f800881f780092
:101ab80008002000980188004f0478000000fa0010
:101ac8000080fa003200f90000400600801f78000c
:101ad8003200f80000002000900188000000fa00a1
:101ae800c0de80000000e800c0de88008780a90012
:101af8000080fa003200f9004f007800004006002c
:101b08003800fa00889fbe008a9fbe002007980010
:101b1800310798006800470004402800757d2100bf
:101b28006011b8000d0207004e009000de00900022
:101b38006e019000fe019000a4ff2000009abe00f4
:101b48000292be006000b800008fbe002900370076
:101b58001e04be001e0078008000e80070014700e7
:101b6800a0ff20003002be002003be000200780063
:101b7800e4fd07000e0890009e0890002e099000d2
:101b8800be099000c342dd00a40021000482420087
:101b9800009abe000292be001e03be009e0078009e
:101ba800001920000009b8001e0078006000b90084
:101bb80003027800000242009e00900000192000f5
:101bc8000088b90000024200840178000219b000c0
:101bd8000380b000c230dd00a07d210000804000fd
:101be8000288be0010002000010020001e0f4000e7
:101bf8005e974800900f200001002000be0f1000e3
:101c0800ae8f1800d2ff360071010700600207008e
:101c180020c221002d040700e0de800094030700a5
:101c280040812000c50207000000eb0030de88007c
:101c3800d0c32100250407005100370030de8000a2
:101c48000000e0004e00320050e08000e40f500039
:101c580002003a000000eb0030de8800a0de8000c1
:101c6800b1de8000c001dd000200200080de8000bf
:101c780091de80000002710081827100d0de800058
:101c88006101b80040812000c5020700b0e088006b
:101c9800d0de80000100200022ff20000089be0065
:101ca800a0de8000b1de8000c001dd00020020005f
:101cb80080de800091de800000007100818071006c
:101cc80022ff200020019800310198000000eb005d
:101cd80030de880050e08000c300dd00a000210055
:101ce8000080400021ff20003002be002003be001b
:101cf8005101be004100be00cb00070050e080004b
:101d0800c200dd00a07d2100008040001001be005f
:101d180050e08000e4de800025ff2000c300dd00e5
:101d2800a0002100008040003004be002005be0055
:101d3800889fbe008a9fbe000203be003500be0019
:101d48002501be00c2fb0700e8875700e0de8800d7
:101d5800e0de800046030700e0de800080007800b7
:101d6800a200200020bc2100a4fb070020bc210009
:101d7800d603070050e080000000e80050e088002b
:101d880051e08000900f2000808f5000abff36009c
:101d98000000eb0030de880020c52100cb030700df
:101da8007800470004802e00658724007201200017
:101db80003002000690107004e089000de0890002b
:101dc8006e099000fe099000a4ff2000009abe0052
:101dd8000292be000000370030de80000000e00004
:101de800fdff3200d0de800001002000220021002b
:101df8000089be00a0de8000b1de8000c001dd00e9
:101e08000200200080de800091de8000000071006a
:101e18008180710022002100200198003101980082
:101e2800000220000e00400041812000a4020700ab
:101e38000e1090009e1090002e119000be11900080
:101e4800a4fe2000009abe000292be00820220007a
:101e58000e01410021ff2000200021003002be00b9
:101e68002003be00849fbe00869fbe003102be00d4
:101e78002103be0002007800cbfc0700e88757006a
:101e88004e109000de1090006e119000fe11900030
:101e980024ff2000009abe000292be000203200028
:101ea8000e01410021ff2000a0fe20003004be00ea
:101eb8002005be00889fbe008a9fbe003102be007a
:101ec8002103be00020078006afd0700e88757007a
:101ed8000e1890009e1890002e199000be199000c0
:101ee80024ff2000009abe000292be00a0de8000ff
:101ef800b1de8000c001dd000200200080de80002d
:101f080091de80000002710081827100d0de8000c5
:101f18006101b80040812000210207000000eb00a9
:101f280030de8800a0ff200021ff20003002be0024
:101f38002003be005101be004100be003a00070068
:101f4800f2e0800003e18000e1de800025ff200050
:101f5800a0ff20003004be002005be00889fbe0000
:101f68008a9fbe000203be00010278003500be0051
:101f78002501be0036fb0700e8875700e0de880031
:101f8800e0de8000ba020700e0de80008000780012
:101f9800a200200020bc210018fb070020bc210063
:101fa8004a0307008cff37000800fa002007980052
:101fb80031079800ae00900000402d00000ab800dc
:101fc800ae009000000320000088b90005017800e9
:101fd80000014100be00900000402d000088b900bb
:101fe8000001410082027800240798003507980014
:101ff8006000b800008fbe00040037001000200009
:10200800010020001e0f40005e9748002e0090003f
:10201800be009000be0f1000ae8f1800f7ff390009
:102028000080fa00000006001600fa00009fbe00bb
:102038000297be0044079800550798006607980065
:10204800770798001e01be004e009000de00900049
:102058000042eb0054579800800f5100818f5900bf
:1020680002003a0010c0b300505798002e019000ab
:10207800be0190006e009000fe0090000042eb0050
:1020880044579800800f5100818f590002003a0090
:1020980010c0b30040579800de5090004e51900099
:1020a80002c060000004e00005003200900020003b
:1020b800b3020700a0002000b10207004200370069
:1020c8001e01be004e009000de0090000042eb00b2
:1020d80034579800800f5100818f59000200390051
:1020e80010c0b300305798002e019000be01900038
:1020f8006e009000fe0090000042eb00245798000c
:10210800800f5100818f59000200360010c0b300c3
:1021180020579800be5090002e51900002c06000d9
:102128000004e0000500320090002000940207003f
:10213800a000200086020700230037001e01be0011
:102148004e009000de0090000042eb00145798000b
:10215800800f5100818f590002003e0010c0b3006b
:10216800105798002e019000be0190006e0090005c
:10217800fe0090000042eb0004579800800f5100c9
:10218800818f59000200310010c0b3000057980039
:102198009e5090000e51900002c060000004e000c4
:1021a80005003200a0002000750207009000200002
:1021b800670207000400370090002000640207004f
:1021c800a0002000620207000080fa00000006005c
:1021d8000000fa0044c7bf00f043b20044e7b7006c
:1021e80044a7a8003174200091407800f0c8b300db
:1021f80000c060000044a00043e7b7004207a90000
:1022080042e7a9004227a9006600070084000700ea
:10221800b0000700eb010700400207008502070035
:102228000080fa00000006000000fa000000eb0041
:102238000f02070060de8000e10f5000fdff340050
:10224800a0de8000b1de8000c001dd0002002000b9
:1022580080de800091de80000000710081807100c6
:102268004040880051408800f03f200000020700ed
:1022780060de8000e30f5000fdff3400a0de800028
:10228800b1de8000c001dd000200200080de800099
:1022980091de80000000710081807100204088007c
:1022a8003140880000202000f101070060de800036
:1022b800e40f5000fdff34000080fa000000060023
:1022c8000800fa00100798002107980032079800c4
:1022d8000000eb00000f78001a0037001e0078009d
:1022e8004300dd00800078001e009000008140005f
:1022f8001e0078004200dd00800078002e0090006b
:10230800008040001000be000089be001e0078005a
:102318004300dd00800078001e009000008140002e
:102328001e0078004200dd00800078003e0090002a
:10233800008040001000be00200198003101980084
:102348001e0fe800900f20009e0f1000e3ff3400de
:102358001e0090000080fa00000006001000fa003d
:10236800420798005307980064079800750798007b
:102378004e019000de019000028fbe006e029000b8
:10238800fe02900024079800350798003e02be0020
:102398002e03be000498be000690be000080fa001e
:1023a800000006000000fa008460a9009460a800fc
:1023b800510a200091407800f0c8b30000c06000c6
:1023c80001c3b30001407000a5e0b7000000eb00b6
:1023d800901688000080eb0080168800e5c4a900ec
:1023e8000421a8004110200091407800f0ccb300ef
:1023f80000c0600004e1b70004c1a9000441a800be
:1024080005a1a90005e1a9008002200010088800a4
:102418000000eb00000888000080fa0000000600b9
:102428000600fa0000902000d10320001007980051
:10243800210798000e8fe80094e0a90084e0a90025
:10244800710a200091407800f0c8b30000c0600015
:1024580001c4b30001407000a7e0b7008500a900df
:102468009500a900810a20009140780080cfb30030
:1024780000c060000024a000a8e0b700e204a900a2
:10248800ca02a900c802a8000000eb008008880062
:102498000000eb009008880011e1a9001021a800b5
:1024a80010a1a9001081a90010c1a90011a1a900bb
:1024b8001061a90010002000600888000000eb00ef
:1024c800300888000000eb00500888000080fa00ff
:1024d800000006000600fa0000902000d10320004a
:1024e80010079800210798000e8fe8009760a90050
:1024f8008760a900110b200091407800f0c8b30054
:1025080000c0600001c4b30001407000b1e0b70032
:102518008780a9009780a800210b200091407800af
:1025280080cfb30000c060000024a000b2e0b70074
:10253800ea42a900e842a800410007000000eb00b9
:10254800f00888000000eb00000988001fe1a900de
:102558001e21a8001ea1a9001e81a9001ec1a90054
:102568001fa1a9001e61a8000000eb00a0088800b8
:102578000000eb00c00888000080eb00d00888004d
:102588000080eb00e00888000080fa0000000600e8
:102598000000fa0005e1a8001fe1a8000080fa0089
:1025a800000006000000fa00113a8000f00b20003d
:1025b8000081600061042000700520002374200061
:1025c8008149780080497800824978006168200054
:1025d8009140780000ccb30000c06000e041b30037
:1025e80086e6b700516c20009140780000ccb3001b
:1025f80000c060007040b300c5e6b700a16c2000c1
:102608009140780000ccb30000c060000034a00006
:10261800cae6b700113a800000042000008170006b
:10262800610420007005200023742000814978008f
:1026380080497800824978000080fa00000006008e
:102648000000fa00113a8000f00b200000816000c1
:10265800610420007005200023742000814978005f
:10266800804978008249780081682000914078008c
:1026780000ccb30000c06000e041b30088e6b700ba
:10268800416a20009140780000ccb30000c060008f
:10269800a4e6b700616c20009140780000ccb3003c
:1026a80000c060003040b300c6e6b700516c20009f
:1026b8009140780000ccb30000c060007040b300c7
:1026c800c5e6b700a16c20009140780000ccb300ab
:1026d80000c060000034a000cae6b700113a8000cc
:1026e80000042000008170006104200070052000b3
:1026f8002374200081497800804978008249780055
:102708000080fa00000006000000fa000000eb005c
:10271800000888000000eb00300888000000eb008b
:10272800500888000000eb00a00888000000eb00bb
:10273800c00888000080fa00000006000200fa00c5
:10274800000f78009e007800407d200080804000c7
:102758000000eb00800878009e007800407d200093
:1027680000804000100178009e007800207d200045
:1027780000804000020878009e007800207d20003c
:1027880000804000100178009e007800007d200045
:1027980000804000020878000080fa00000006006f
:1027a8000c00fa00000f7800120798002307980021
:1027b80034079800450798009e007800407d200067
:1027c8000080400090007800a00f2000808f50000b
:1027d80003003a000000eb0050079800350037006e
:1027e8009e007800007d20000080400010007800e6
:1027f8009e0078004300dd00010040001e019000ab
:10280800ae0190000288be009e007800007d200086
:1028180000804000100078009e0078004300dd0032
:1028280064004000010040003e019000ce0190008d
:102838000288be009e007800007d200000804000d5
:10284800100078000001e8009e007800007d20005c
:1028580000804000020878009e007800407d20003b
:1028680000804000100078000001e8009e00780019
:10287800407d200000804000020878009e0078001b
:10288800007d20000080400090007800a00f20000c
:10289800808f500005003a009e007800007d2000df
:1028a800808040000000eb008008780013002000c2
:1028b800530798005e0090000080fa0000000600b0
:1028c8000400fa0010079800010f78009e007800b5
:1028d800207d20000080400090007800a00f20009c
:1028e800808f500005003a009e007800207d20006f
:1028f800808040000000eb00800878009e0078008f
:10290800407d200000804000100078000000e000ba
:10291800200032009e007800207d200000804000ca
:10292800100078000001e8009e007800207d20005b
:1029380000804000020878009e007800407d20005a
:1029480000804000100078000001e9009e00780037
:10295800407d200000804000020878009e0078003a
:10296800207d200000804000100078000000e90071
:102978009e0078004300dd00010040005001be00c9
:102988004000be001e029000009abe000292be00e7
:1029980001003700010037001e0090000080fa0097
:1029a800000006000200fa00000f78009e00780080
:1029b800407d200000804000100078000080fa0070
:1029c800000006000000fa008540a900e882a9007e
:1029d800e8a2a90041e2a9000000eb00101288005b
:1029e8004382a9004362a9004342a80042a2a8006a
:1029f80045e2a90045c2a90045a2a9004302a800d2
:102a080042c2a80042c2bf00c041b30042e2b700c0
:102a18002124200091407800c0cfb30000c060009e
:102a280042e2b70041e2a8000080fa000000060078
:102a38000400fa0010079800eaa2a9001e009000fe
:102a48004012880085c0bf00644060000004e000b8
:102a5800fcff32008540a90040128000000f78007a
:102a6800eaa2a8001e0078000080fa000000060014
:102a78000400fa001007980000002800000f7800f2
:102a88001e0090004200dd001e007000e8ff0700f5
:102a98000080fa00000006000000fa00113a8000e9
:102aa800f00b200000816000610420007005200008
:102ab8002374200081497800804978008249780091
:102ac800516c20009140780000ccb30000c0600039
:102ad8007040b300c5e6b700a16c200091407800b3
:102ae80000ccb30000c060000034a000cae6b70004
:102af800113a800000042000008170006104200069
:102b080070052000237420008149780080497800ee
:102b1800824978000080fa00000006000000fa00f0
:102b28000000eb000027880001168000e09f2f00be
:102b3800008060000016880011168000e09f2f00ba
:102b480000806000101688000080fa00000006006f
:102b58000200fa00000f78009e00780010002000a4
:102b68000100dd000080ea00800078001016800077
:102b780000806000101688000080fa00000006003f
:102b88000200fa00000f78009e0078001000200074
:102b98000100dd00800078001016800000807000c1
:102ba800101688000080fa00000006000000fa00f5
:102bb800c3c2bf000080fb004200de00614060002d
:102bc80000c0ea0061406000614060004201dd0031
:102bd800312c200091407800b0cfb30000c06000d5
:102be80002407000c3e2b7000080fa00000006004f
:102bf8000000fa00c3c2bf000080fb000000d10043
:102c08006140600000c0ea0061406000614060000f
:102c180000414000312c200091407800d0cfb30013
:102c280000c0600002407000c3e2b7000080fa00f4
:102c3800000006000000fa00e204a900e2c4a900ae
:102c4800c8c2a900c802a800a0022000401188003c
:102c58000000eb00001188002062a80021e2a80013
:102c68000000eb00101188002342a8008560a9002d
:102c78000080fa00000006000200fa0085c0bf00cc
:102c8800684060000004e000fcff32003011800062
:102c9800004f78008560a9001e00fb000080fa0044
:102ca800000006000200fa00004f780023c2bf00af
:102cb800624060000004e000fcff3a001e00fb00d8
:102cc800201188000080fa00000006000600fa00c3
:102cd800200798002e009000d7f7070010079800eb
:102ce8000000eb00000f7800070037001e00780096
:102cf800800078002e00900000804000104078008e
:102d0800e8ff07001e0fe8001e0090009e0f10004d
:102d1800f6ff3500d0c0b300e2ff0700a0c0b30043
:0c2d2800e0ff07000080fa000000060039
:020000040000fa
:102d3400c61b00009c000000820000000000000090
:102d4400000000000000010000000000000000007e
:102d5400000000000000000000f401000100000079
:102d6400000100000000010000000000010000005c
:102d7400000100000000010000000000010000004c
:102d8400000100000000010000000000010000003c
:102d9400000500000000000000000000000000002a
:102da400000000000000010000f401000000140015
:102db40000a08600010049006e69740069616c001e
:102dc400697a610074696f006e2073007563630033
:102dd4006573730066756c006c004d006f6465006c
:102de400207379006e636800726f6e00697a610007
:102df40074696f006e004d006f64650020636100ac
:102e04007074750072650000000000000008000086
:0c2e1400c6130000800000000000000059
:020000040000fa
:042e20000000fe00b0
:00000001FF
